:100000003EC0ABC157C056C055C054C053C052C00B
:1000100051C050C04FC04EC04DC04CC04BC0090273
:10002000120001010080050904000000000000002A
:1000300012011001FF000008030431C6050101028E
:1000400000011A036900320063002D00740069008A
:100050006E0079002D007500730062001A035400D1
:1000600069006C006C0020004800610072006200B2
:10007000610075006D00040309040100FF8E112466
:100080001FBECFE5D1E0DEBFCDBF10E0A0E6B0E0FF
:10009000ECEEF9E002C005900D92A636B107D9F753
:1000A00020E0A6E6B0E001C01D92A939B207E1F751
:1000B00069D49AC4A5CF1F93CF93DF9360917F003B
:1000C000611138C08091600084FF26C0909161006A
:1000D0009F3F11F1692F993008F050C0961B909303
:1000E00061008091660080FD51C01BE48F5F8093AA
:1000F000660087FD66C0611154C0D4E0C0E06C2F7B
:1001000080E790E09BD2C83019F08FEF80936100B8
:1001100010936F00D09360009AE086B3857031F43D
:100120009150D9F71092800010927A00DF91CF9110
:100130001F910895635020917C008CE090E0821B19
:100140009109EC01CD57DF4F80917B008D3201F199
:100150008091660087FD22C0CE01CED38F3F09F487
:1001600076C091E0811190E0892F819590E0909385
:1001700066008093610010927F00A4CF68E0961B18
:10018000909361008091660080FFAFCF13ECAECFFB
:100190008AE580936000683009F43EC090E880E012
:1001A000E6CF80E790E05BD3C82F893008F4A6C083
:1001B0008FEF80936100DEE110936F00D0936000B9
:1001C000ABCF20917D0030917E004FEF460F86FF30
:1001D00018C0662371F0A0E7B0E0842FF901949174
:1001E0009D9331968150D8F7842F90E00196280F87
:1001F000391F30937E0020937D00D4E0D60FC62FA8
:100200007ECF6623B1F3D901E0E7F0E0842F9D9122
:1002100091938150E0F7E8CF8881807659F510926C
:1002200078008981811119C01092790088E790E0E7
:1002300090937E0080937D0090E882E02F812111D1
:1002400096CF2E81281708F092CF822F90CF8EE183
:100250008093600090E08FEF8ACF8530A9F08630E0
:10026000C9F0883039F18930F9F08A3061F190E8CD
:1002700080E0E4CFCE0157D28F3F09F042C0988191
:1002800097FF74CF8E8172CF8A818093800090E82F
:1002900080E0D4CF8B81813041F18230E9F083302E
:1002A00091F190EC80E0CACF8A818093820090E83F
:1002B00080E0C4CF82E890E090937E0080937D0040
:1002C00090E881E0BBCF88E790E090937E00809338
:1002D0007D0090E881E0B2CF8EE190E090937E00C7
:1002E00080937D0090EC82E1A9CF80E390E0909331
:1002F0007E0080937D0090EC82E1A0CFD4E0D80F07
:10030000FECE90E89BCF8A81811109C086E790E0FC
:1003100090937E0080937D0090EC84E08FCF8130BD
:1003200061F0823009F0BDCF82E490E090937E00CE
:1003300080937D0090EC8AE181CF8CE590E09093F2
:100340007E0080937D0090EC8AE178CF85B7836052
:1003500085BF8BB780648BBF0895CF93CFB7CF9302
:10036000B09BFECFB09B09C0B09B07C0B09B05C03F
:10037000B09B03C0B09B01C09EC0DF93C0917C00C6
:10038000DD27CD57DF4FB09B02C0DF91EBCF2F931E
:100390000F931F9306B32FEF00FB20F94F933F936A
:1003A00016B34FEF012700FB21F93BE031C04E7F30
:1003B000012F16B3216028C0102F4D7F226000004E
:1003C00006B329C04B7F2460012F000016B32BC059
:1003D00016B3477F28602AC04F7E06B320612CC029
:1003E0004F7D16B320622FC04F7B06B3206432C00E
:1003F000422706B349934FEF0000102710FB20F966
:1004000016B31570A9F1297F91F2012700FB21F99C
:1004100006B3237F89F23150F0F1102710FB22F947
:1004200016B3277E79F2012700FB23F92F7C81F296
:1004300006B3102710FB24F92F7971F200C016B310
:10044000012700FB25F92F7359F200C006B31027CE
:1004500010FB26F9223040F200C016B3012700FB42
:1004600027F9243028F64F77206816B30000F9CF1B
:100470003B503195333010E41ABFB8F0C31BD04065
:100480000881033C41F10B3431F11981412F1F7771
:1004900020917A00121731F4093691F10D3279F07A
:1004A000013E69F02227209381003F914F911F91D7
:1004B0000F912F91DF91CF91CFBFCF9118950093DE
:1004C00081003F914F911F910F912F91DF91CAB7FA
:1004D000C6FD46CFF0CF00918100002331F310918B
:1004E0007F00112349F534304AF130937F000093A7
:1004F0007B0010917C003BE0311B30937C001EC0E0
:1005000000917F000130C4F40AE53091600034FDB1
:1005100017C000936000CFE6D0E016C0052710E0BA
:1005200008BB1FC0052722C0052727C005272CC0F0
:10053000052710E008BB33C04AE503C042ED01C007
:10054000432FC4E1D0E032E017B31560C09A08B37E
:1005500017BB5F9355E020E820FF052708BB2795D0
:1005600017951C3FD8F620FF0527279508BB179540
:100570001C3FC0F620FF05272795179508BB1C3F99
:1005800098F620FF0527279517951C3F08BB70F6A6
:1005900000C0499120FF052708BB279517951C3FF0
:1005A00038F620FF0527279508BB17951C3F38F51F
:1005B00020FF05272795179508BB1C3F10F520FF46
:1005C0000527279517951C3F08BBE8F4242F3A957B
:1005D00019F60A7F5F9108BB00C010918000C651D8
:1005E000D04011F010937A0010E41ABF016017B3E5
:1005F0001A7F402F4A7F08BB17BB48BB56CF052741
:10060000D3CF0527D8CF0527DDCFA82FB92F8FEF60
:100610009FEF41E050EA615070F02D9138E0722F69
:10062000782796958795269570FF02C08427952791
:100630003A95A9F7F0CF809590950895E6DF8D93D0
:100640009D930895E0916200F09163003197F1F776
:10065000882359F0BD98C59AB59BFECF8091640060
:10066000909165000197F1F70895BD9AC598F6CF6E
:10067000B998C19A0895811103C0B99AC198089593
:10068000F7CF80E0F8DF81E0DDDFF2CF0F931F933B
:10069000CF93DF93082F10E0C7E0D0E007C0E8DF7A
:1006A00081E0D0DF80E0CEDF219760F098010C2E52
:1006B00002C0359527950A94E2F720FDF0CF80E03F
:1006C000DADFEECFD5DF81E0BDDFC6B380E0BADF91
:1006D000C695C17081E08C27DF91CF911F910F915A
:1006E00008951F93CF93DF93182FC2DF80E0AADF16
:1006F000D8E0C0E081E0A6DFCC0FB199C16080E016
:10070000A1DFD150B9F711110CC080E0B4DF81E056
:1007100099DF80E097DFACDF8C2FDF91CF911F91C5
:100720000895A6DFF4CF1F93CF93DF9327E630E041
:1007300030937E0020937D00FC012181223009F45A
:1007400068C0EC01233090F4222309F457C0213013
:1007500009F046C044E050E06AE770E087E690E0C8
:1007600033D184E0DF91CF911F9108952330E9F1D7
:100770002830B0F51481110F828180FD116020FDB9
:1007800003C076DF81E05EDF80E075DF80E05ADF66
:10079000812F7CDF882309F457C081E080936B00B0
:1007A0002E813F8130936E0020936D00898180936C
:1007B0006C0081FF04C02115310509F441C081E0BE
:1007C000232B09F480E08195DF91CF911F9108954B
:1007D000969587959093630080936200892B41F1F1
:1007E00080E0DF91CF911F91089580916B008093FD
:1007F000670081E0DF91CF911F91089582818093FE
:10080000670083818093680082E0DF91CF911F9120
:100810000895FC0182819381909365008093640028
:100820000097B1F681E090E09093650080936400BA
:1008300081E090E0909363008093620080E0D1CFEC
:1008400020DF2E813F81BBCF82E080936B0010922E
:100850006E0010926D0015DF2E813F81B0CFDF92C8
:10086000EF92FF920F931F93CF93DF938C01D62EBD
:1008700080916B00813079F0462F50E060E070E0AD
:10088000C801ABD08D2DDF91CF911F910F91FF90BB
:10089000EF90DF900895C0916D00D0916E00862F8B
:1008A00090E0C817D90708F4DC2EDD20C9F0EE244B
:1008B000EA94ED0CF12C8FEFE81AF80AE00EF11E25
:1008C0002197D0936E00C0936D0081E0209709F0CE
:1008D00080E007DFF80181938F01EE15FF0581F7B6
:1008E00080916C0081FFCECF80916D0090916E0061
:1008F000892B41F6C6DEC6CFDF92EF92FF920F93AF
:100900001F93CF93DF93D62E20916B00213071F08F
:10091000462F50E060E070E060D08D2DDF91CF91E8
:100920001F910F91FF90EF90DF900895C0916D009F
:10093000D0916E00262F30E0C217D30708F4DC2ECA
:10094000DD20A1F08C0121978FEF8D0D7E01E81A3B
:10095000F10801C02197D0936E00C0936D00F8019B
:1009600081918F0193DECE15DF05A1F780916C0098
:1009700081FFD3CF80916D0090916E00892B69F635
:1009800080DECBCF9EE088E10FB6F894A89581BDBC
:100990000FBE91BDB998C19ABD98C59A10926E00CC
:1009A00010926D0088B38A7F88BB87B3856087BB50
:1009B00080E49CE90197F1F787B38A7F87BBC6DCA7
:1009C0007894A89578DBFDCFFB01DC0102C005908F
:1009D0000D9241505040D8F70895DC0101C06D934D
:0C09E00041505040E0F70895F894FFCF1C
:0609EC005AFF05000A009D
:00000001FF
